:020000040800F2
:10000000000400200101000825030008F502000893
:100010002103000849010008190C00080000000035
:10002000000000000000000000000000350500088E
:100030004D01000800000000270300082106000809
:100040001B0100081B0100081B0100081B01000820
:100050001B0100081B0100081B0100081B01000810
:100060001B0100081B0100081B0100081B01000800
:100070001B0100081B0100081B0100081B010008F0
:100080001B0100081B0100081B0100081B010008E0
:100090001B0100081B0100081B0100081B010008D0
:1000A0001B0100081B0100081B0100081B010008C0
:1000B0001B0100081B0100081B0100081B010008B0
:1000C0001B0100081B0100081B0100081B010008A0
:1000D0001B0100081B0100081B0100081B01000890
:1000E0001B0100081B0100081B010008DFF80CD0F1
:1000F00000F018F8004800473B0C000800040020FE
:100100000648804706480047FEE7FEE7FEE7FEE7B1
:10011000FEE7FEE7FEE7FEE7FEE7FEE7250600084E
:10012000ED000008064C074D06E0E06840F00103D2
:1001300094E8070098471034AC42F6D3FFF7DAFF93
:10014000480C0008580C000800BFFEE770472DE976
:10015000F04102460025002600200023002400274D
:1001600091F803C00CF00F0591F803C00CF0100CCF
:10017000BCF1000F03D091F802C04CEA050591F8DC
:1001800000C0BCF1000F31D0146800202BE04FF00C
:10019000010C0CFA00F3B1F800C00CEA03069E4211
:1001A00020D183004FF00F0C0CFA03F7BC4305FA83
:1001B00003FC4CEA040491F803C0BCF1280F06D1FB
:1001C0004FF0010C0CFA00FCC2F814C00AE091F8E0
:1001D00003C0BCF1480F05D14FF0010C0CFA00FC34
:1001E000C2F810C0401C0828D1D31460B1F800C078
:1001F000BCF1FF0F34DD546800202EE000F1080C44
:100200004FF0010808FA0CF3B1F800C00CEA03063D
:100210009E4221D183004FF00F0C0CFA03F7BC4330
:1002200005FA03FC4CEA040491F803C0BCF1280F62
:1002300005D100F1080C08FA0CF8C2F8148091F806
:1002400003C0BCF1480F07D100F1080C4FF00108C2
:1002500008FA0CF8C2F81080401C0828CED354606D
:10026000BDE8F081F0B50A460023002400210025F6
:1002700000F00046B6F1004F02D11D4EF16901E0D9
:100280001B4E7168C0F3034583B200F44016B6F507
:10029000401F08D121F07061154E766826F0706617
:1002A000134F7E6012E000F48016B6F5801F06D171
:1002B000032606FA05F4A14341F0706106E0460DFD
:1002C000360103FA06F6B14341F0706122B1460DE2
:1002D000360103FA06F6314300F00046B6F1004F4E
:1002E00002D1034EF16101E0014E7160F0BD0000EA
:1002F0000000014000BFFEE708B500F0ADF8102097
:100300008DF803004FF47040ADF8000003208DF825
:10031000020069460148FFF71AFF08BD000C0140C2
:1003200000BFFEE77047704700B587B0012103208A
:1003300000F0E0F801210C2000F0ECF80121084663
:1003400000F0E8F804208DF81B003820ADF8180004
:1003500003208DF81A0006A93948FFF7F8FE04209B
:100360008DF81B004003ADF8180003208DF81A002B
:1003700006A93448FFF7EBFE01213348FFF772FF6F
:1003800001213248FFF76EFF01213148FFF76AFF74
:100390000020ADF81200ADF80E004FF6FF70ADF87A
:1003A00010000020ADF80C008DF8140003A94FF0E8
:1003B000804000F0DFFB684600F008FB0020ADF84D
:1003C0000000ADF802000F20ADF8080069464FF0BC
:1003D000804000F0A5FA0420ADF80000694600074F
:1003E00000F09EFA00231A4603214FF0804000F0EF
:1003F00075FA0121880700F065FA684600F0E6FA10
:100400000020ADF80000ADF802000F20ADF80800A4
:100410006946104800F084FA0420ADF800006946EF
:100420000C4800F07DFA00231A460321094800F029
:1004300055FA0121074800F045FA07B000BD000059
:10044000000C0140000801400002300000011800CB
:1004500000081A000004004000B589B00121042002
:1004600000F048F80121082000F054F818208DF819
:1004700023004001ADF8200003208DF8220008A9D8
:100480001A48FFF764FE1A4800F0A9FA0020ADF8F8
:100490001A00ADF8160041F61F40ADF81800002014
:1004A000ADF814008DF81C0005A9114800F062FB9E
:1004B00001A800F029FB6020ADF804000020ADF891
:1004C0000C000120ADF806000020ADF80A0001A9DB
:1004D000074800F08BFA01A9054800F0D7FA01217E
:1004E000034800F0EFF909B000BD0000000C014026
:1004F0000008004029B1064AD2690243044BDA6180
:1005000004E0034AD2698243014BDA61704700007C
:100510000010024029B1064A92690243044B9A61D5
:1005200004E0034A92698243014B9A6170470000DC
:1005300000100240704710B500F002F810BD000036
:100540000CB50020019000903348006840F48030E2
:100550003149086000BF3048006800F40030009066
:100560000198401C0190009818B90198B0F5A06F4F
:10057000F1D12948006800F4003010B1012000904A
:1005800001E0002000900098012843D12348006832
:1005900040F01000214908600846006820F0030080
:1005A00008600846006840F0020008601A48406889
:1005B000194948600846406848600846406840F469
:1005C000806048600846406820F47C104860084617
:1005D000406840F4E81048600846006840F08070C9
:1005E000086000BF0C48006800F000700028F9D0D7
:1005F0000948406820F00300074948600846406801
:1006000040F00200486000BF0348406800F00C0062
:100610000828F9D10CBD0000001002400020024063
:100620007047000010B51348006840F00100114900
:10063000086008464068104908400E49486008466E
:1006400000680E4908400B4908600846006820F41D
:10065000802008600846406820F4FE0048604FF49F
:100660001F008860FFF767FF4FF0006004490860D3
:1006700010BD0000001002400000FFF8FFFFF6FE72
:1006800008ED00E0F0B50C46154600220021068C6E
:100690004FF6FE773E400684028B018C4FF60C76B7
:1006A00032407E1C06EA03162E433243104EB042FF
:1006B0000ED0104EB0420BD0B0F1804F08D00E4E8D
:1006C000B04205D00D4EB04202D00D4EB04206D120
:1006D0004FF6FD76314044F00106314305E04FF618
:1006E000F576314044F00106314302830184F0BDC8
:1006F000002C01400034014000040040000800408C
:10070000000C0040F0B50C461546002200210026E2
:10071000078C4FF6EF7C07EA0C070784028B018CED
:100720004FF6FF7707EA041640F6FF473A404FF6C8
:10073000FF7707EA03373A434FF6FF7707EA0527C3
:100740003A43114FB8420ED0104FB8420BD0B0F11F
:10075000804F08D00E4FB84205D00E4FB84202D09D
:100760000D4FB84206D14FF6DF77394046F01007FB
:10077000394305E04FF65F77394044F010073943BD
:1007800002830184F0BD0000002C014000340140D0
:100790000004004000080040000C0040F0B50C468A
:1007A0001546002200210026078C4FF6FF6C07EA51
:1007B0000C070784828B018C4FF6FF7707EA04262B
:1007C0004FF60C773A404FF6FF7707EA03172F43AF
:1007D0003A43114FB8420ED0104FB8420BD0B0F18F
:1007E000804F08D00E4FB84205D00E4FB84202D00D
:1007F0000D4FB84206D14FF6FF57394046F4807787
:10080000394305E04FF2FF57394044F480773943CC
:1008100082830184F0BD0000002C014000340140BF
:100820000004004000080040000C0040F0B50C46F9
:100830001546002200210026078C4EF6FF7C07EAB1
:100840000C070784828B018C4FF6FF7707EA04368A
:1008500040F6FF473A404FF6FF7707EA05273A434D
:100860004FF6FF7707EA03373A43114FB8420ED0ED
:10087000104FB8420BD0B0F1804F08D00E4FB842A5
:1008800005D00E4FB84202D00D4FB84206D14DF6FA
:10089000FF77394046F48057394305E047F6FF5764
:1008A000394044F48057394382830184F0BD00000D
:1008B000002C0140003401400004004000080040CA
:1008C000000C004021B1028842F00102028004E0E5
:1008D00002884FF6FE731A4002807047F0B50C464E
:1008E00015461E460021002200230189028B038C3D
:1008F0004FF6F877394021434FF6FC473A4040F233
:1009000001173A434FF6DD773B404FF6FF7707EA92
:1009100006172F433B43018102830384F0BD00008F
:1009200070B505460C46244885420ED023488542C2
:100930000BD0B5F1804F08D02148854205D0214821
:10094000854202D02048854200D100E000BF2088C7
:1009500050B92389A28861882846FFF793FEE18871
:10096000284600F0DBF825E0208804280AD12389F6
:10097000A28861882846FFF7C5FEE188284600F076
:10098000D6F817E0208808280AD12389A288618830
:100990002846FFF703FFE188284600F0D5F809E074
:1009A0002389A28861882846FFF740FFE18828460E
:1009B00000F0D3F870BD0000002C0140003401406D
:1009C0000004004000080040000C004000210180AD
:1009D0004180012181800021C1800181704701890E
:1009E0004FF6F872114001817047000070B5002485
:1009F00000220023058C4FF6FF6635400584028CEB
:100A00008388848B4FF68F752C404FF6FC752C40F5
:100A10000D882C434FF6FF552A400D894FF6FF767F
:100A200006EA05252A434D8806EA05252A43154D81
:100A3000A84202D0144DA8421DD14FF2FF752A40A2
:100A40004D894FF6FF7606EA05252A434FF6FF3516
:100A50002A408D8806EA05252A434EF6FF752B406D
:100A60004DF6FF752B408D8906EA05152B43CD8980
:100A700006EA05152B4383808483CD88858702840D
:100A800070BD0000002C01400034014070B5002210
:100A900000230024058C4EF6FF7635400584038C38
:100AA0008488828B48F6FF752A404FF6FF452A401E
:100AB0000D884FF6FF7606EA05252A434DF6FF75A9
:100AC0002B400D8906EA05352B434D8806EA05358E
:100AD0002B430B4DA84202D00A4DA84208D14BF639
:100AE000FF752C408D894FF6FF7606EA85152C435D
:100AF00084808283CD88A0F84050038470BD0000BC
:100B0000002C01400034014000210180418081809F
:100B1000C180018141818181C1817047028B4FF683
:100B2000F3731A400283028B0A4302837047028BDD
:100B30004FF2FF331A400283028B4FF6FF7303EA32
:100B400001231A4302837047828B4FF6F3731A40D6
:100B50008283828B0A4382837047828B4FF2FF33FA
:100B60001A408283828B4FF6FF7303EA01231A43F4
:100B700082837047002202881D4B98420ED01D4B85
:100B800098420BD0B0F1804F08D01B4B984205D053
:100B90001A4B984202D01A4B984204D14FF68F73E9
:100BA0001A404B881A43174B984207D0164B98426D
:100BB00004D04FF6FF431A40CB881A4302808B883B
:100BC00083850B8803850A4B98420BD0094B9842CA
:100BD00008D00E4B984205D00D4B984202D00D4BD9
:100BE000984201D10B7A038601238382704700006B
:100BF000002C014000340140000400400008004087
:100C0000000C004000100040001400400040014073
:100C1000004401400048014000BFFEE702E008C870
:100C2000121F08C1002AFAD170477047002001E066
:100C300001C1121F002AFBD17047FFF75DFBFFF7D0
:100C400073FB00BFFEE70000580C00080000002006
:080C5000000400002C0C000858
:0400000508000101ED
:00000001FF
